{
  "contractName": "SocialNetwork",
  "abi": [
    {
      "inputs": [],
      "stateMutability": "nonpayable",
      "type": "constructor"
    },
    {
      "anonymous": false,
      "inputs": [
        {
          "indexed": false,
          "internalType": "uint256",
          "name": "id",
          "type": "uint256"
        },
        {
          "indexed": false,
          "internalType": "string",
          "name": "content",
          "type": "string"
        },
        {
          "indexed": false,
          "internalType": "string",
          "name": "imgHash",
          "type": "string"
        },
        {
          "indexed": false,
          "internalType": "uint256",
          "name": "tipAmount",
          "type": "uint256"
        },
        {
          "indexed": false,
          "internalType": "address payable",
          "name": "author",
          "type": "address"
        }
      ],
      "name": "PostCreated",
      "type": "event"
    },
    {
      "anonymous": false,
      "inputs": [
        {
          "indexed": false,
          "internalType": "uint256",
          "name": "id",
          "type": "uint256"
        },
        {
          "indexed": false,
          "internalType": "string",
          "name": "content",
          "type": "string"
        },
        {
          "indexed": false,
          "internalType": "string",
          "name": "imgHash",
          "type": "string"
        },
        {
          "indexed": false,
          "internalType": "uint256",
          "name": "tipAmount",
          "type": "uint256"
        },
        {
          "indexed": false,
          "internalType": "address payable",
          "name": "author",
          "type": "address"
        }
      ],
      "name": "PostTipped",
      "type": "event"
    },
    {
      "inputs": [],
      "name": "name",
      "outputs": [
        {
          "internalType": "string",
          "name": "",
          "type": "string"
        }
      ],
      "stateMutability": "view",
      "type": "function",
      "constant": true
    },
    {
      "inputs": [],
      "name": "postCount",
      "outputs": [
        {
          "internalType": "uint256",
          "name": "",
          "type": "uint256"
        }
      ],
      "stateMutability": "view",
      "type": "function",
      "constant": true
    },
    {
      "inputs": [
        {
          "internalType": "uint256",
          "name": "",
          "type": "uint256"
        }
      ],
      "name": "posts",
      "outputs": [
        {
          "internalType": "uint256",
          "name": "id",
          "type": "uint256"
        },
        {
          "internalType": "string",
          "name": "content",
          "type": "string"
        },
        {
          "internalType": "string",
          "name": "imgHash",
          "type": "string"
        },
        {
          "internalType": "uint256",
          "name": "tipAmount",
          "type": "uint256"
        },
        {
          "internalType": "address payable",
          "name": "author",
          "type": "address"
        }
      ],
      "stateMutability": "view",
      "type": "function",
      "constant": true
    },
    {
      "inputs": [
        {
          "internalType": "string",
          "name": "_content",
          "type": "string"
        },
        {
          "internalType": "string",
          "name": "_hash",
          "type": "string"
        }
      ],
      "name": "CreatePost",
      "outputs": [],
      "stateMutability": "nonpayable",
      "type": "function"
    },
    {
      "inputs": [
        {
          "internalType": "uint256",
          "name": "_id",
          "type": "uint256"
        }
      ],
      "name": "tipPost",
      "outputs": [],
      "stateMutability": "payable",
      "type": "function",
      "payable": true
    }
  ],
  "bytecode": "0x608060405260006001553480156200001657600080fd5b506040518060400160405280600e81526020017f536f6369616c204e6574776f726b0000000000000000000000000000000000008152506000908051906020019062000064929190620001c6565b506040518060a0016040528060015481526020016040518060400160405280600a81526020017f466972737420506f73740000000000000000000000000000000000000000000081525081526020016040518060400160405280600481526020017f23313233000000000000000000000000000000000000000000000000000000008152508152602001600081526020013373ffffffffffffffffffffffffffffffffffffffff168152506002600060015481526020019081526020016000206000820151816000015560208201518160010190805190602001906200014c929190620001c6565b5060408201518160020190805190602001906200016b929190620001c6565b506060820151816003015560808201518160040160006101000a81548173ffffffffffffffffffffffffffffffffffffffff021916908373ffffffffffffffffffffffffffffffffffffffff160217905550905050620002db565b828054620001d490620002a5565b90600052602060002090601f016020900481019282620001f8576000855562000244565b82601f106200021357805160ff191683800117855562000244565b8280016001018555821562000244579182015b828111156200024357825182559160200191906001019062000226565b5b50905062000253919062000257565b5090565b5b808211156200027257600081600090555060010162000258565b5090565b7f4e487b7100000000000000000000000000000000000000000000000000000000600052602260045260246000fd5b60006002820490506001821680620002be57607f821691505b60208210811415620002d557620002d462000276565b5b50919050565b610e1380620002eb6000396000f3fe60806040526004361061004a5760003560e01c806306fdde031461004f5780630b1e7f831461007a57806317906c2e146100bb57806374d3c1f8146100e65780637a8d157e14610102575b600080fd5b34801561005b57600080fd5b5061006461012b565b60405161007191906108f6565b60405180910390f35b34801561008657600080fd5b506100a1600480360381019061009c9190610962565b6101b9565b6040516100b29594939291906109df565b60405180910390f35b3480156100c757600080fd5b506100d061031f565b6040516100dd9190610a40565b60405180910390f35b61010060048036038101906100fb9190610962565b610325565b005b34801561010e57600080fd5b5061012960048036038101906101249190610b90565b610655565b005b6000805461013890610c37565b80601f016020809104026020016040519081016040528092919081815260200182805461016490610c37565b80156101b15780601f10610186576101008083540402835291602001916101b1565b820191906000526020600020905b81548152906001019060200180831161019457829003601f168201915b505050505081565b60026020528060005260406000206000915090508060000154908060010180546101e290610c37565b80601f016020809104026020016040519081016040528092919081815260200182805461020e90610c37565b801561025b5780601f106102305761010080835404028352916020019161025b565b820191906000526020600020905b81548152906001019060200180831161023e57829003601f168201915b50505050509080600201805461027090610c37565b80601f016020809104026020016040519081016040528092919081815260200182805461029c90610c37565b80156102e95780601f106102be576101008083540402835291602001916102e9565b820191906000526020600020905b8154815290600101906020018083116102cc57829003601f168201915b5050505050908060030154908060040160009054906101000a900473ffffffffffffffffffffffffffffffffffffffff16905085565b60015481565b60008111801561033757506001548111155b61034057600080fd5b6000600260008381526020019081526020016000206040518060a00160405290816000820154815260200160018201805461037a90610c37565b80601f01602080910402602001604051908101604052809291908181526020018280546103a690610c37565b80156103f35780601f106103c8576101008083540402835291602001916103f3565b820191906000526020600020905b8154815290600101906020018083116103d657829003601f168201915b5050505050815260200160028201805461040c90610c37565b80601f016020809104026020016040519081016040528092919081815260200182805461043890610c37565b80156104855780601f1061045a57610100808354040283529160200191610485565b820191906000526020600020905b81548152906001019060200180831161046857829003601f168201915b50505050508152602001600382015481526020016004820160009054906101000a900473ffffffffffffffffffffffffffffffffffffffff1673ffffffffffffffffffffffffffffffffffffffff1673ffffffffffffffffffffffffffffffffffffffff168152505090506000816080015190508073ffffffffffffffffffffffffffffffffffffffff166108fc349081150290604051600060405180830381858888f1935050505015801561053f573d6000803e3d6000fd5b503482606001516105509190610c98565b82606001818152505081600260008581526020019081526020016000206000820151816000015560208201518160010190805190602001906105939291906107ba565b5060408201518160020190805190602001906105b09291906107ba565b506060820151816003015560808201518160040160006101000a81548173ffffffffffffffffffffffffffffffffffffffff021916908373ffffffffffffffffffffffffffffffffffffffff1602179055509050507f8cdd31fc6bd9c789638fdbd3ed5c788b27fa5d287f300e92f3c436ba03527db383836020015184604001518560600151856040516106489594939291906109df565b60405180910390a1505050565b600082511161066357600080fd5b600081511161067157600080fd5b60016000815461068090610cee565b919050819055506040518060a001604052806001548152602001838152602001828152602001600081526020013373ffffffffffffffffffffffffffffffffffffffff168152506002600060015481526020019081526020016000206000820151816000015560208201518160010190805190602001906107029291906107ba565b50604082015181600201908051906020019061071f9291906107ba565b506060820151816003015560808201518160040160006101000a81548173ffffffffffffffffffffffffffffffffffffffff021916908373ffffffffffffffffffffffffffffffffffffffff1602179055509050507f0e2769bd597cd7048e25b64a846e1254d4cb84b13c4aba4ad4a891baf7a399c660015483836000336040516107ae959493929190610d7c565b60405180910390a15050565b8280546107c690610c37565b90600052602060002090601f0160209004810192826107e8576000855561082f565b82601f1061080157805160ff191683800117855561082f565b8280016001018555821561082f579182015b8281111561082e578251825591602001919060010190610813565b5b50905061083c9190610840565b5090565b5b80821115610859576000816000905550600101610841565b5090565b600081519050919050565b600082825260208201905092915050565b60005b8381101561089757808201518184015260208101905061087c565b838111156108a6576000848401525b50505050565b6000601f19601f8301169050919050565b60006108c88261085d565b6108d28185610868565b93506108e2818560208601610879565b6108eb816108ac565b840191505092915050565b6000602082019050818103600083015261091081846108bd565b905092915050565b6000604051905090565b600080fd5b600080fd5b6000819050919050565b61093f8161092c565b811461094a57600080fd5b50565b60008135905061095c81610936565b92915050565b60006020828403121561097857610977610922565b5b60006109868482850161094d565b91505092915050565b6109988161092c565b82525050565b600073ffffffffffffffffffffffffffffffffffffffff82169050919050565b60006109c98261099e565b9050919050565b6109d9816109be565b82525050565b600060a0820190506109f4600083018861098f565b8181036020830152610a0681876108bd565b90508181036040830152610a1a81866108bd565b9050610a29606083018561098f565b610a3660808301846109d0565b9695505050505050565b6000602082019050610a55600083018461098f565b92915050565b600080fd5b600080fd5b7f4e487b7100000000000000000000000000000000000000000000000000000000600052604160045260246000fd5b610a9d826108ac565b810181811067ffffffffffffffff82111715610abc57610abb610a65565b5b80604052505050565b6000610acf610918565b9050610adb8282610a94565b919050565b600067ffffffffffffffff821115610afb57610afa610a65565b5b610b04826108ac565b9050602081019050919050565b82818337600083830152505050565b6000610b33610b2e84610ae0565b610ac5565b905082815260208101848484011115610b4f57610b4e610a60565b5b610b5a848285610b11565b509392505050565b600082601f830112610b7757610b76610a5b565b5b8135610b87848260208601610b20565b91505092915050565b60008060408385031215610ba757610ba6610922565b5b600083013567ffffffffffffffff811115610bc557610bc4610927565b5b610bd185828601610b62565b925050602083013567ffffffffffffffff811115610bf257610bf1610927565b5b610bfe85828601610b62565b9150509250929050565b7f4e487b7100000000000000000000000000000000000000000000000000000000600052602260045260246000fd5b60006002820490506001821680610c4f57607f821691505b60208210811415610c6357610c62610c08565b5b50919050565b7f4e487b7100000000000000000000000000000000000000000000000000000000600052601160045260246000fd5b6000610ca38261092c565b9150610cae8361092c565b9250827fffffffffffffffffffffffffffffffffffffffffffffffffffffffffffffffff03821115610ce357610ce2610c69565b5b828201905092915050565b6000610cf98261092c565b91507fffffffffffffffffffffffffffffffffffffffffffffffffffffffffffffffff821415610d2c57610d2b610c69565b5b600182019050919050565b6000819050919050565b6000819050919050565b6000610d66610d61610d5c84610d37565b610d41565b61092c565b9050919050565b610d7681610d4b565b82525050565b600060a082019050610d91600083018861098f565b8181036020830152610da381876108bd565b90508181036040830152610db781866108bd565b9050610dc66060830185610d6d565b610dd360808301846109d0565b969550505050505056fea26469706673582212202766d2604cbd5976cdbefa2d9ff864f44324b53fb4e63c204dd00a224e3d59e764736f6c634300080b0033",
  "immutableReferences": {},
  "source": "pragma solidity >=0.4.22 <0.9.0;\r\n\r\ncontract SocialNetwork{\r\n    string public name;\r\n    uint public postCount=0;\r\n    mapping(uint => Post) public posts;\r\n    struct Post{\r\n        uint id;\r\n        string content;\r\n        string imgHash;\r\n        uint tipAmount;\r\n        address payable author;\r\n    }\r\n    event PostCreated(\r\n        uint id,\r\n        string content,\r\n        string imgHash,\r\n        uint tipAmount,\r\n        address payable author\r\n    );\r\n\r\n    event PostTipped(\r\n        uint id,\r\n        string content,\r\n        string imgHash,\r\n        uint tipAmount,\r\n        address payable author\r\n    );\r\n    constructor() public {\r\n        name = \"Social Network\";\r\n        posts[postCount]=Post(postCount,'First Post','#123',0,payable(msg.sender));\r\n    }\r\n    function CreatePost(string memory _content, string memory _hash) public{\r\n        require(bytes(_content).length > 0);\r\n        require(bytes(_hash).length > 0);\r\n        ++postCount;\r\n        posts[postCount] = Post(postCount,_content,_hash,0, payable(msg.sender));\r\n        emit PostCreated(postCount, _content,_hash, 0, payable(msg.sender));\r\n    }\r\n    function tipPost(uint _id) public  payable{\r\n        require(_id>0 && _id<=postCount);\r\n        //fetch post\r\n        Post memory _post = posts[_id];\r\n        //fetch the author\r\n        address payable  _author = (_post.author);\r\n        //send ether to author\r\n        _author.transfer(msg.value);\r\n        //tip amount\r\n        _post.tipAmount = _post.tipAmount + msg.value;\r\n        //update the post\r\n        posts[_id] = _post;\r\n        emit PostTipped(_id, _post.content,_post.imgHash, _post.tipAmount, _author);\r\n\r\n    }\r\n}",
  "sourcePath": "C:\\Users\\manee\\Documents\\React Projects\\Projects\\DSocial\\dsocial\\contracts\\SocialNetwork.sol",
  "compiler": {
    "name": "solc",
    "version": "0.8.11+commit.d7f03943.Emscripten.clang"
  },
  "schemaVersion": "3.4.4",
  "updatedAt": "2022-05-12T05:55:22.574Z",
  "networkType": "ethereum",
  "devdoc": {
    "kind": "dev",
    "methods": {},
    "version": 1
  },
  "userdoc": {
    "kind": "user",
    "methods": {},
    "version": 1
  }
}